{
  "address": "0xE5654c0946381f0D078099b9d01Fe81B1A1182A9",
  "abi": [
    {
      "inputs": [
        {
          "internalType": "address",
          "name": "_manager",
          "type": "address"
        }
      ],
      "stateMutability": "nonpayable",
      "type": "constructor"
    },
    {
      "anonymous": false,
      "inputs": [
        {
          "indexed": false,
          "internalType": "address",
          "name": "raisePool",
          "type": "address"
        },
        {
          "indexed": false,
          "internalType": "address",
          "name": "caller",
          "type": "address"
        },
        {
          "indexed": false,
          "internalType": "uint256",
          "name": "payValue",
          "type": "uint256"
        },
        {
          "components": [
            {
              "internalType": "uint256",
              "name": "id",
              "type": "uint256"
            },
            {
              "internalType": "uint256",
              "name": "targetAmount",
              "type": "uint256"
            },
            {
              "internalType": "uint256",
              "name": "securityFund",
              "type": "uint256"
            },
            {
              "internalType": "uint256",
              "name": "securityFundRate",
              "type": "uint256"
            },
            {
              "internalType": "uint256",
              "name": "deadline",
              "type": "uint256"
            },
            {
              "internalType": "uint256",
              "name": "raiserShare",
              "type": "uint256"
            },
            {
              "internalType": "uint256",
              "name": "investorShare",
              "type": "uint256"
            },
            {
              "internalType": "uint256",
              "name": "servicerShare",
              "type": "uint256"
            },
            {
              "internalType": "address",
              "name": "sponsor",
              "type": "address"
            },
            {
              "internalType": "uint256",
              "name": "companyId",
              "type": "uint256"
            },
            {
              "internalType": "address",
              "name": "spAddress",
              "type": "address"
            },
            {
              "internalType": "string",
              "name": "raiseCompany",
              "type": "string"
            }
          ],
          "indexed": false,
          "internalType": "struct ILetsFilRaiseInfo.RaiseInfo",
          "name": "raiseInfo",
          "type": "tuple"
        },
        {
          "components": [
            {
              "internalType": "uint256",
              "name": "nodeSize",
              "type": "uint256"
            },
            {
              "internalType": "uint256",
              "name": "sectorSize",
              "type": "uint256"
            },
            {
              "internalType": "uint256",
              "name": "sealPeriod",
              "type": "uint256"
            },
            {
              "internalType": "uint256",
              "name": "nodePeriod",
              "type": "uint256"
            },
            {
              "internalType": "uint256",
              "name": "opsSecurityFund",
              "type": "uint256"
            },
            {
              "internalType": "address",
              "name": "opsSecurityFundPayer",
              "type": "address"
            },
            {
              "internalType": "uint64",
              "name": "minerID",
              "type": "uint64"
            }
          ],
          "indexed": false,
          "internalType": "struct ILetsFilRaiseInfo.NodeInfo",
          "name": "nodeInfo",
          "type": "tuple"
        },
        {
          "indexed": false,
          "internalType": "uint256",
          "name": "raiseID",
          "type": "uint256"
        }
      ],
      "name": "eCreateRaisePlan",
      "type": "event"
    },
    {
      "anonymous": false,
      "inputs": [
        {
          "indexed": false,
          "internalType": "address",
          "name": "addr",
          "type": "address"
        }
      ],
      "name": "eTest",
      "type": "event"
    },
    {
      "inputs": [
        {
          "components": [
            {
              "internalType": "uint256",
              "name": "id",
              "type": "uint256"
            },
            {
              "internalType": "uint256",
              "name": "targetAmount",
              "type": "uint256"
            },
            {
              "internalType": "uint256",
              "name": "securityFund",
              "type": "uint256"
            },
            {
              "internalType": "uint256",
              "name": "securityFundRate",
              "type": "uint256"
            },
            {
              "internalType": "uint256",
              "name": "deadline",
              "type": "uint256"
            },
            {
              "internalType": "uint256",
              "name": "raiserShare",
              "type": "uint256"
            },
            {
              "internalType": "uint256",
              "name": "investorShare",
              "type": "uint256"
            },
            {
              "internalType": "uint256",
              "name": "servicerShare",
              "type": "uint256"
            },
            {
              "internalType": "address",
              "name": "sponsor",
              "type": "address"
            },
            {
              "internalType": "uint256",
              "name": "companyId",
              "type": "uint256"
            },
            {
              "internalType": "address",
              "name": "spAddress",
              "type": "address"
            },
            {
              "internalType": "string",
              "name": "raiseCompany",
              "type": "string"
            }
          ],
          "internalType": "struct ILetsFilRaiseInfo.RaiseInfo",
          "name": "_raiseInfo",
          "type": "tuple"
        },
        {
          "components": [
            {
              "internalType": "uint256",
              "name": "nodeSize",
              "type": "uint256"
            },
            {
              "internalType": "uint256",
              "name": "sectorSize",
              "type": "uint256"
            },
            {
              "internalType": "uint256",
              "name": "sealPeriod",
              "type": "uint256"
            },
            {
              "internalType": "uint256",
              "name": "nodePeriod",
              "type": "uint256"
            },
            {
              "internalType": "uint256",
              "name": "opsSecurityFund",
              "type": "uint256"
            },
            {
              "internalType": "address",
              "name": "opsSecurityFundPayer",
              "type": "address"
            },
            {
              "internalType": "uint64",
              "name": "minerID",
              "type": "uint64"
            }
          ],
          "internalType": "struct ILetsFilRaiseInfo.NodeInfo",
          "name": "_nodeInfo",
          "type": "tuple"
        }
      ],
      "name": "createRaisePlan",
      "outputs": [
        {
          "internalType": "address",
          "name": "planAddress",
          "type": "address"
        }
      ],
      "stateMutability": "payable",
      "type": "function"
    },
    {
      "inputs": [
        {
          "internalType": "uint256",
          "name": "_raiseID",
          "type": "uint256"
        }
      ],
      "name": "endPlan",
      "outputs": [
        {
          "internalType": "bool",
          "name": "",
          "type": "bool"
        }
      ],
      "stateMutability": "nonpayable",
      "type": "function"
    }
  ],
  "transactionHash": "0x6307f64f825ea315dfdcf420e4614f9a3830c2b66d6a2ead800486069ddaf610",
  "args": [
    "0x47C1Cbb1D676B4464c19C5c58deaA50bA468C69B"
  ],
  "numDeployments": 3,
  "solcInputHash": "43a5c5cec20be57e07739a1968d0a947",
  "bytecode": "0x60a060405234801561001057600080fd5b50604051614c82380380614c8283398101604081905261002f9161008d565b30608052600480546001600160a01b0319166001600160a01b03929092169190911790556100b6565b60006001600160a01b0382165b92915050565b61007481610058565b811461007f57600080fd5b50565b80516100658161006b565b6000602082840312156100a2576100a2600080fd5b60006100ae8484610082565b949350505050565b608051614bb16100d1600039600061025f0152614bb16000f3fe6080604052600436106200002c5760003560e01c80632acb1213146200003157806368431882146200006e575b600080fd5b3480156200003e57600080fd5b50620000566200005036600462000339565b62000094565b60405162000065919062000370565b60405180910390f35b620000856200007f366004620006e8565b62000177565b60405162000065919062000753565b6000620000a062000254565b600082815260036020908152604091829020825160808101845281546001600160a01b03808216808452600160a01b90920467ffffffffffffffff16948301949094526001830154948201949094526002909101549091166060820152903214620001285760405162461bcd60e51b81526004016200011f9062000792565b60405180910390fd5b6020808201805167ffffffffffffffff9081166000908152600284526040808220829055925190911681526001808452828220929094015182548086018455928252929020015590505b919050565b60006200018362000254565b60008081546200019390620007ba565b9182905550835260c082015167ffffffffffffffff1660009081526002602052604090205415620001d85760405162461bcd60e51b81526004016200011f9062000803565b620002076000808154620001ec90620007ba565b9182905550600454859085906001600160a01b03166200028c565b83516040519192507f73431d37379b0583e6e6b20fa3b9ea5cf050fbeed75f69fa0d51d5e3a44168689162000246918491339134918991899162000a33565b60405180910390a192915050565b306001600160a01b037f000000000000000000000000000000000000000000000000000000000000000016146200028a57600080fd5b565b60008054604051602001620002a2919062000aa2565b60405160208183030381529060405280519060200120348686868630604051620002cc9062000307565b620002dc95949392919062000ab2565b82906040518091039083f591505080158015620002fd573d6000803e3d6000fd5b5095945050505050565b6140698062000b1383390190565b805b81146200032357600080fd5b50565b8035620003338162000315565b92915050565b600060208284031215620003505762000350600080fd5b60006200035e848462000326565b949350505050565b8015155b82525050565b6020810162000333828462000366565b634e487b7160e01b600052604160045260246000fd5b601f19601f830116810181811067ffffffffffffffff82111715620003bf57620003bf62000380565b6040525050565b6000620003d260405190565b905062000172828262000396565b60006001600160a01b03821662000333565b6200031781620003e0565b80356200033381620003f2565b600067ffffffffffffffff82111562000427576200042762000380565b601f19601f83011660200192915050565b82818337506000910152565b60006200045b62000455846200040a565b620003c6565b905082815260208101848484011115620004785762000478600080fd5b6200048584828562000438565b509392505050565b600082601f830112620004a357620004a3600080fd5b81356200035e84826020860162000444565b60006101808284031215620004cd57620004cd600080fd5b620004da610180620003c6565b90506000620004ea848462000326565b8252506020620004fd8484830162000326565b6020830152506040620005138482850162000326565b6040830152506060620005298482850162000326565b60608301525060806200053f8482850162000326565b60808301525060a0620005558482850162000326565b60a08301525060c06200056b8482850162000326565b60c08301525060e0620005818482850162000326565b60e0830152506101006200059884828501620003fd565b61010083015250610120620005b08482850162000326565b61012083015250610140620005c884828501620003fd565b6101408301525061016082013567ffffffffffffffff811115620005ef57620005ef600080fd5b620005fd848285016200048d565b6101608301525092915050565b67ffffffffffffffff811662000317565b803562000333816200060a565b600060e082840312156200063f576200063f600080fd5b6200064b60e0620003c6565b905060006200065b848462000326565b82525060206200066e8484830162000326565b6020830152506040620006848482850162000326565b60408301525060606200069a8482850162000326565b6060830152506080620006b08482850162000326565b60808301525060a0620006c684828501620003fd565b60a08301525060c0620006dc848285016200061b565b60c08301525092915050565b6000806101008385031215620007015762000701600080fd5b823567ffffffffffffffff8111156200071d576200071d600080fd5b6200072b85828601620004b5565b92505060206200073e8582860162000628565b9150509250929050565b6200036a81620003e0565b6020810162000333828462000748565b601581526000602082017422a7222fa82620a72fa7a924a3a4a72fa2a92927a960591b815291505b5060200190565b60208082528101620003338162000763565b634e487b7160e01b600052601160045260246000fd5b60006000198203620007d057620007d0620007a4565b5060010190565b60148152600060208201736d696e657220616c72656164792065786973747360601b815291506200078b565b602080825281016200033381620007d7565b806200036a565b60005b83811015620008395781810151838201526020016200081f565b50506000910152565b60006200084d825190565b808452602084019350620008668185602086016200081c565b601f01601f19169290920192915050565b80516000906101808401906200088e858262000815565b506020830151620008a3602086018262000815565b506040830151620008b8604086018262000815565b506060830151620008cd606086018262000815565b506080830151620008e2608086018262000815565b5060a0830151620008f760a086018262000815565b5060c08301516200090c60c086018262000815565b5060e08301516200092160e086018262000815565b506101008301516200093861010086018262000748565b506101208301516200094f61012086018262000815565b506101408301516200096661014086018262000748565b5061016083015184820361016086015262000982828262000842565b95945050505050565b67ffffffffffffffff81166200036a565b805160e0830190620009af848262000815565b506020820151620009c4602085018262000815565b506040820151620009d9604085018262000815565b506060820151620009ee606085018262000815565b50608082015162000a03608085018262000815565b5060a082015162000a1860a085018262000748565b5060c082015162000a2d60c08501826200098b565b50505050565b610180810162000a44828962000748565b62000a53602083018862000748565b62000a62604083018762000815565b818103606083015262000a76818662000877565b905062000a8760808301856200099c565b62000a9761016083018462000815565b979650505050505050565b6020810162000333828462000815565b610160810162000ac3828862000815565b818103602083015262000ad7818762000877565b905062000ae860408301866200099c565b62000af861012083018562000748565b62000b0861014083018462000748565b969550505050505056fe60a0604052678ac7230489e800006080908152506040516200406938038062004069833981016040819052620000359162000578565b620000403362000179565b600185905583516002908155602085015160035560408501516004556060850151600555608085015160065560a085015160075560c085015160085560e0850151600955610100850151600a80546001600160a01b039283166001600160a01b031991821617909155610120870151600b55610140870151600c8054919093169116179055610160850151859190600d90620000dd908262000718565b50508351600e5550506020820151600f5560408201516010556060820151601155608082015160125560a08201516013805460c0909401516001600160a01b039283166001600160e01b031990951694909417600160a01b6001600160401b039095168502179055601d80546001600160a01b031916929091169190911790556000805460ff60a01b19169091179055505034601b55620007e8565b600080546001600160a01b038381166001600160a01b0319831681178455604051919092169283917f8be0079c531659141344cd1fd0a4f28419497f9722a3daafe3b4186f6b6457e09190a35050565b805b8114620001d757600080fd5b50565b8051620001e781620001c9565b92915050565b634e487b7160e01b600052604160045260246000fd5b601f19601f83011681018181106001600160401b03821117156200022b576200022b620001ed565b6040525050565b60006200023e60405190565b90506200024c828262000203565b919050565b60006001600160a01b038216620001e7565b620001cb8162000251565b8051620001e78162000263565b60006001600160401b03821115620002975762000297620001ed565b601f19601f83011660200192915050565b60005b83811015620002c5578181015183820152602001620002ab565b50506000910152565b6000620002e5620002df846200027b565b62000232565b905082815260208101848484011115620003025762000302600080fd5b6200030f848285620002a8565b509392505050565b600082601f8301126200032d576200032d600080fd5b81516200033f848260208601620002ce565b949350505050565b600061018082840312156200035f576200035f600080fd5b6200036c61018062000232565b905060006200037c8484620001da565b82525060206200038f84848301620001da565b6020830152506040620003a584828501620001da565b6040830152506060620003bb84828501620001da565b6060830152506080620003d184828501620001da565b60808301525060a0620003e784828501620001da565b60a08301525060c0620003fd84828501620001da565b60c08301525060e06200041384828501620001da565b60e0830152506101006200042a848285016200026e565b610100830152506101206200044284828501620001da565b610120830152506101406200045a848285016200026e565b610140830152506101608201516001600160401b03811115620004805762000480600080fd5b6200048e8482850162000317565b6101608301525092915050565b6001600160401b038116620001cb565b8051620001e7816200049b565b600060e08284031215620004cf57620004cf600080fd5b620004db60e062000232565b90506000620004eb8484620001da565b8252506020620004fe84848301620001da565b60208301525060406200051484828501620001da565b60408301525060606200052a84828501620001da565b60608301525060806200054084828501620001da565b60808301525060a062000556848285016200026e565b60a08301525060c06200056c84828501620004ab565b60c08301525092915050565b60008060008060006101608688031215620005965762000596600080fd5b6000620005a48888620001da565b95505060208601516001600160401b03811115620005c557620005c5600080fd5b620005d38882890162000347565b9450506040620005e688828901620004b8565b935050610120620005fa888289016200026e565b9250506101406200060e888289016200026e565b9150509295509295909350565b634e487b7160e01b600052602260045260246000fd5b6002810460018216806200064657607f821691505b6020821081036200065b576200065b6200061b565b50919050565b6000620001e76200066f8381565b90565b6200067d8362000661565b81546008840282811b60001990911b908116901990911617825550505050565b6000620006ac81848462000672565b505050565b81811015620006d057620006c76000826200069d565b600101620006b1565b5050565b601f821115620006ac576000818152602090206020601f85010481016020851015620006fd5750805b620007116020601f860104830182620006b1565b5050505050565b81516001600160401b03811115620007345762000734620001ed565b62000740825462000631565b6200074d828285620006d4565b6020601f8311600181146200078457600084156200076b5750858201515b600019600886021c1981166002860217865550620007e0565b600085815260208120601f198616915b82811015620007b6578885015182556020948501946001909201910162000794565b86831015620007d35784890151600019601f89166008021c191682555b6001600288020188555050505b505050505050565b60805161385062000819600039600081816103b701528181610b0201528181610b30015261125a01526138506000f3fe60806040526004361061025c5760003560e01c806386b2997411610144578063c9d5df01116100b6578063eb0023521161007a578063eb002352146106b6578063ed07f59e146106cb578063f08077ff146106ec578063f2fde38b1461070c578063f65b72501461072c578063fc6d2cf71461074257600080fd5b8063c9d5df0114610607578063d38a7aed1461061d578063d591b7c014610633578063d77acecd14610648578063e05ab2a71461065d57600080fd5b8063995d0fe611610108578063995d0fe6146105555780639d661b8b1461056a578063a902eb591461058a578063b6b6a6ae146105aa578063c144b797146105d8578063c424ddef146105f157600080fd5b806386b29974146104dc57806386f43a41146104f15780638da5cb5b146105115780638e6d7f13146105375780638e73064f1461053f57600080fd5b80634bfc4583116101dd57806353501f8d116101a157806353501f8d1461043057806359aa6999146104505780636e4dadcd1461047d578063715018a614610492578063750142e6146104a757806380d14868146104bc57600080fd5b80634bfc4583146103855780634ccd44d3146103a55780634cf088d9146103d95780634e14eb28146103e15780634e3f2e481461041057600080fd5b80633146c2ab116102245780633146c2ab146103005780633a75c73a146103155780633d274a4e1461032b57806343d474491461035a5780634ad84b341461037057600080fd5b80630e0704461461026157806312065fe0146102835780631d442519146102a85780631da43a2c146102c85780632f6b5fc2146102ea575b600080fd5b34801561026d57600080fd5b5061028161027c366004612a3c565b610762565b005b34801561028f57600080fd5b50475b60405161029f9190612a81565b60405180910390f35b3480156102b457600080fd5b506102816102c3366004612a8f565b61087a565b3480156102d457600080fd5b506102dd610903565b60405161029f9190612ab8565b3480156102f657600080fd5b5061029260165481565b34801561030c57600080fd5b5061028161093b565b34801561032157600080fd5b5061029260015481565b34801561033757600080fd5b50610292610346366004612ac6565b601760205280600052604060002054905081565b34801561036657600080fd5b50610292601a5481565b34801561037c57600080fd5b50610292610a2a565b34801561039157600080fd5b506102816103a0366004612ac6565b610a3a565b3480156103b157600080fd5b506102927f000000000000000000000000000000000000000000000000000000000000000081565b610281610a64565b3480156103ed57600080fd5b506102926103fc366004612ac6565b601860205280600052604060002054905081565b34801561041c57600080fd5b5061028161042b366004612a8f565b610c44565b34801561043c57600080fd5b5061028161044b366004612ae7565b610d7b565b34801561045c57600080fd5b50610465610e37565b60405161029f9c9b9a99989796959493929190612b6e565b34801561048957600080fd5b50610281610f0c565b34801561049e57600080fd5b5061028161102a565b3480156104b357600080fd5b5061029261103e565b3480156104c857600080fd5b506102926104d7366004612ac6565b611049565b3480156104e857600080fd5b506102816110ad565b3480156104fd57600080fd5b5061028161050c366004612a8f565b611125565b34801561051d57600080fd5b506000546001600160a01b031660405161029f9190612c27565b6102816113c2565b34801561054b57600080fd5b5061029260145481565b34801561056157600080fd5b50610281611504565b34801561057657600080fd5b50610292610585366004612ac6565b61168f565b34801561059657600080fd5b506102816105a5366004612a8f565b6116bb565b3480156105b657600080fd5b506000546105cb90600160a01b900460ff1681565b60405161029f9190612c7e565b3480156105e457600080fd5b50600354601654146102dd565b3480156105fd57600080fd5b50610292601b5481565b34801561061357600080fd5b5061029260155481565b34801561062957600080fd5b5061029260195481565b34801561063f57600080fd5b50610281611814565b34801561065457600080fd5b50610281611853565b34801561066957600080fd5b50600e54600f546010546011546012546013546106a39594939291906001600160a01b03811690600160a01b90046001600160401b031687565b60405161029f9796959493929190612c9b565b3480156106c257600080fd5b50610292611971565b3480156106d757600080fd5b506000546105cb90600160a81b900460ff1681565b3480156106f857600080fd5b50610281610707366004612a8f565b61197c565b34801561071857600080fd5b50610281610727366004612ac6565b611a41565b34801561073857600080fd5b50610292601c5481565b34801561074e57600080fd5b5061029261075d366004612ac6565b611a7b565b6000811160405160408082019052600b81526a3830b930b69032b93937b960a91b6020820152906107af5760405162461bcd60e51b81526004016107a69190612d03565b60405180910390fd5b506107b93361168f565b8111156107d85760405162461bcd60e51b81526004016107a690612d4b565b336000908152601860205281906040902060008282546107f89190612d71565b90915550506001600160a01b03821681156108fc0282604051600060405180830381858888f19350505050158015610834573d6000803e3d6000fd5b507f7864b76c7deb7badbb2677036e72bceede1f27ad5de801fedee080e9579e0ca26001543033858560405161086e959493929190612d84565b60405180910390a15050565b601d546001600160a01b031633146108a45760405162461bcd60e51b81526004016107a690612de8565b60035481111560405160408082019052600b81526a3830b930b69032b93937b960a91b6020820152906108ea5760405162461bcd60e51b81526004016107a69190612d03565b506000805460ff60a81b1916600160aa1b179055601a55565b601d546000906001600160a01b031633146109305760405162461bcd60e51b81526004016107a690612de8565b506003546016541490565b600c546001600160a01b031633146109655760405162461bcd60e51b81526004016107a690612e20565b6002600054600160a01b900460ff16600681111561098557610985612c35565b146109a357604051633bb876f360e21b815260040160405180910390fd5b6013546011546109d891600160a01b90046001600160401b0316906109c9906002612e30565b6109d39042612e4f565b611ac2565b6000805460ff60a01b1916600360a01b1790556001547f232677777bd30fff3912b9961ead28df75f4cc82ea5fae5822c9fc748872cbb5903390604051610a20929190612e62565b60405180910390a1565b6000610a353361168f565b905090565b610a42611b37565b601380546001600160a01b0319166001600160a01b0392909216919091179055565b6006544210610a855760405162461bcd60e51b81526004016107a690612eaa565b600354601654610a96903490612e4f565b1115610ab45760405162461bcd60e51b81526004016107a690612eee565b6003600054600160a01b900460ff166006811115610ad457610ad4612c35565b14610b0057600054600160a01b900460ff1660405163e72a902d60e01b81526004016107a69190612c7e565b7f0000000000000000000000000000000000000000000000000000000000000000341015610bac576016546003547f000000000000000000000000000000000000000000000000000000000000000091610b5991612d71565b1015610b9357601654600354610b6f9190612d71565b3414610b8e57604051632cae2ad960e11b815260040160405180910390fd5b610bac565b604051632cae2ad960e11b815260040160405180910390fd5b33600090815260176020523490604090206000828254610bcc9190612e4f565b925050819055503460166000828254610be59190612e4f565b909155505060035460165403610c0d576000805460ff60a01b1916600560a01b179055426019555b7f7ab067f550c88e5ec26d40ef4b565a41d917a1bb2412aa89da3d2bed81e40518600154333034604051610a209493929190612efe565b610c4c611b37565b6000811160405160408082019052600b81526a3830b930b69032b93937b960a91b602082015290610c905760405162461bcd60e51b81526004016107a69190612d03565b5060006064600260050154601554610ca89190612e30565b610cb29190612f49565b336000908152601860205290915082906040902054610cd19083612d71565b1015610cef5760405162461bcd60e51b81526004016107a690612d4b565b33600090815260186020528290604090206000828254610d0f9190612e4f565b9091555033905082156108fc0283604051600060405180830381858888f19350505050158015610d43573d6000803e3d6000fd5b507fe5da6d3d51ad16b594efd851e42b99c49fe19e4285f4823756ae022a60c643a060015430338560405161086e9493929190612efe565b601d546001600160a01b03163314610da55760405162461bcd60e51b81526004016107a690612de8565b600082118015610db3575060015b60405160408082019052600b81526a3830b930b69032b93937b960a91b602082015290610df35760405162461bcd60e51b81526004016107a69190612d03565b50610dfe8183612e4f565b60145560158290557fe006a6f9193fd67ca36d3f6f253c3dd54e1660078f25e3fe5f55d9cf090e4a69828260405161086e929190612f5d565b60028054600354600454600554600654600754600854600954600a54600b54600c54600d80549b9c9a9b999a989997989697959694956001600160a01b039485169593949092169291610e8990612f81565b80601f0160208091040260200160405190810160405280929190818152602001828054610eb590612f81565b8015610f025780601f10610ed757610100808354040283529160200191610f02565b820191906000526020600020905b815481529060010190602001808311610ee557829003601f168201915b505050505090508c565b610f14611b37565b600454601b541015610f385760405162461bcd60e51b81526004016107a690612fe8565b6004600054600160a01b900460ff166006811115610f5857610f58612c35565b1480610f8157506006600054600160a01b900460ff166006811115610f7f57610f7f612c35565b145b15610fbe57600454339080156108fc0290604051600060405180830381858888f19350505050158015610fb8573d6000803e3d6000fd5b50610fd7565b604051639543369b60e01b815260040160405180910390fd5b600454601b8054600090610fec908490612d71565b90915550506001546004547fa3a6324388fc0c4f50a89eb79a6adccc6c13e8d02f33c7bae2aafdd73dad28db913391604051610a2093929190612ff8565b611032611b37565b61103c6000611b61565b565b6000610a3533611a7b565b600060165460646002600601546015546014546110669190612d71565b6110709190612e30565b6001600160a01b0385166000908152601760205260409020546110939190612e30565b61109d9190612f49565b6110a79190612f49565b92915050565b6010546110bd9062015180612e30565b6019546110ca9190612e4f565b42106110e4576000805460ff60a81b1916600160a91b1790555b6001546000547f9a781bbdc9dd3cba13fc1a809f3afa74fef9ec49e9a69545b7148535ed18d94f9190600160a81b900460ff16604051610a20929190613020565b6003600054600160a01b900460ff16600681111561114557611145612c35565b148061116e57506004600054600160a01b900460ff16600681111561116c5761116c612c35565b145b8061119657506006600054600160a01b900460ff16600681111561119457611194612c35565b145b6111b25760405162461bcd60e51b81526004016107a69061305d565b336000908152601760205260408120541180156111de5750336000908152601760205260409020548111155b6111fa5760405162461bcd60e51b81526004016107a690613098565b6013546001600160a01b03163314801561122f57506012543360009081526017602052604090205461122c9190612d71565b81115b1561124d57604051630c09958160e01b815260040160405180910390fd5b33600090815260176020527f0000000000000000000000000000000000000000000000000000000000000000908290604090205461128b9190612d71565b10156112aa57604051632a8cb2f360e01b815260040160405180910390fd5b60065442108015906112bf5750600354601654105b15611312576000805460ff60a01b1916600360a11b1790556001547f33d89694c3e2cdd490ef5b39bb1f78b9a69af60d08af7b968c04236268d94eb4906040516113099190612a81565b60405180910390a15b336000908152601760205281906040902060008282546113329190612d71565b92505081905550806016600082825461134b9190612d71565b9091555033905081156108fc0282604051600060405180830381858888f1935050505015801561137f573d6000803e3d6000fd5b507fb8ea0a09cf45416c38419b44df6e04defca30bdb2170c3f2fe0fbe59468ab71f6001543330846040516113b79493929190612efe565b60405180910390a150565b6001600054600160a01b900460ff1660068111156113e2576113e2612c35565b146113ff5760405162461bcd60e51b81526004016107a6906130f2565b60125434146114205760405162461bcd60e51b81526004016107a690613136565b6013546001600160a01b0316331460405160408082019052600d81526c2737903832b936b4b9b9b4b7b760991b6020820152906114705760405162461bcd60e51b81526004016107a69190612d03565b50336000908152601760205260409020541561149e5760405162461bcd60e51b81526004016107a69061317a565b336000908152601760205234906040902055346016819055601c8190556000805460ff60a01b1916600160a11b1790556001547ff4355201361cd9f345c33a3437a48a1185da6306d1b73e44bf4e74adf4d28656913390604051610a209392919061318a565b601254601c5410156115285760405162461bcd60e51b81526004016107a6906131e6565b6013546001600160a01b031633146115525760405162461bcd60e51b81526004016107a690613223565b6004600054600160a01b900460ff16600681111561157257611572612c35565b148061159b57506006600054600160a01b900460ff16600681111561159957611599612c35565b145b80156115eb57506005600054600160a81b900460ff1660068111156115c2576115c2612c35565b14806115eb57506006600054600160a81b900460ff1660068111156115e9576115e9612c35565b145b61160857604051632bfb1a3760e21b815260040160405180910390fd5b601254601c805460009061161d908490612d71565b9091555050601254339080156108fc0290604051600060405180830381858888f19350505050158015611654573d6000803e3d6000fd5b507f9f5878cc3fcae7b43b9f02949d5828c9b460972d7e2cd4d55cc7298850fd17ff33600154600e60040154604051610a2093929190612ff8565b6001600160a01b0381166000908152601860205260408120546116b183611a7b565b6110a79190612d71565b600c546001600160a01b031633146116e55760405162461bcd60e51b81526004016107a690612e20565b6000811160405160408082019052600b81526a3830b930b69032b93937b960a91b6020820152906117295760405162461bcd60e51b81526004016107a69190612d03565b50600060646002600701546015546117419190612e30565b61174b9190612f49565b33600090815260186020529091508290604090205461176a9083612d71565b10156117885760405162461bcd60e51b81526004016107a690612d4b565b336000908152601860205282906040902060008282546117a89190612e4f565b9091555033905082156108fc0283604051600060405180830381858888f193505050501580156117dc573d6000803e3d6000fd5b507ff69d5b3f71f5b58e6d857275b7e97c5d65dbf6e797c3544b24c5764b9966f9a360015430338560405161086e9493929190612efe565b601d546001600160a01b0316331461183e5760405162461bcd60e51b81526004016107a690612de8565b6000805460ff60a81b1916600360a91b179055565b61185b611b37565b6004600054600160a01b900460ff16600681111561187b5761187b612c35565b10611899576040516364cdea6d60e11b815260040160405180910390fd5b6000805460ff60a01b1916600160a21b179055601e546001546001600160a01b0390911690632acb1213906040518263ffffffff1660e01b81526004016118e09190612a81565b6020604051808303816000875af11580156118ff573d6000803e3d6000fd5b50505050604051601f3d908101601f19168201604052611922919081019061324a565b61193e5760405162461bcd60e51b81526004016107a69061329f565b7f96bea66445b93064905ab9484bca37afea06fc23524c53a1f8ac18f76d193f3933600154604051610a20929190612e62565b6000610a3533611049565b601d546001600160a01b031633146119a65760405162461bcd60e51b81526004016107a690612de8565b4281111560405160408082019052600b81526a3830b930b69032b93937b960a91b6020820152906119ea5760405162461bcd60e51b81526004016107a69190612d03565b5060198190556000805460ff60a81b1916600160a81b908117918290556001547f9a781bbdc9dd3cba13fc1a809f3afa74fef9ec49e9a69545b7148535ed18d94f929091900460ff166040516113b7929190613020565b611a49611b37565b6001600160a01b038116611a6f5760405162461bcd60e51b81526004016107a6906132f2565b611a7881611b61565b50565b60006016546064600260060154601554611a959190612e30565b611a9f9190612f49565b6001600160a01b03841660009081526017602052604090205461109d9190612e30565b611aca61297c565b611ad5600019611bb3565b6020820152600782900b6040820152611aed30611bff565b81527f4f585bbf0e07de94405f680838727b835429785b661a98e8361dc421599a63e78383604051611b2092919061334f565b60405180910390a1611b328382611c48565b505050565b6000546001600160a01b0316331461103c5760405162461bcd60e51b81526004016107a69061339c565b600080546001600160a01b038381166001600160a01b0319831681179093551690817f8be0079c531659141344cd1fd0a4f28419497f9722a3daafe3b4186f6b6457e060405160405180910390a35050565b611bce60405160408082019052606081526000602082015290565b6000611bdb836000611c93565b90506040516040808201905280825181526020018260200151151590529392505050565b611c13604051602081016040526060815290565b604051806020016040528083604051602001611c2f91906133d4565b6040516020818303038152906040528152509050919050565b6000611c5382611ceb565b90506000611c6b84635d9dfc2c605185600080611daa565b9050805115611c8d57604051630e74990760e01b815260040160405180910390fd5b50505050565b611cb9604051806060016040528060608152602001600015158152602001600081525090565b611ce483604051602001611ccd91906133fa565b604051602081830303815290604052836000611df4565b9392505050565b6060600080611cfd8460200151611ec9565b9050611d096003611fe7565b611d139083612e4f565b9150611d20845151612035565b611d2a9083612e4f565b9150611d3581612035565b611d3f9083612e4f565b9150611d4e846040015161204d565b611d589083612e4f565b91506000611d6583612090565b9050611d728160036120b0565b611d7f85515182906120c0565b611d8981836120c0565b611d98856040015182906120d9565b611da1816120e3565b95945050505050565b60606064876001600160401b03161015611dd9578660405163a292827360e01b81526004016107a6919061340f565b611de7878787878787612110565b90505b9695505050505050565b611e1a604051806060016040528060608152602001600015158152602001600081525090565b602084018451600059601f83161560018114611e4857601f8416602090810380860184528301019250611e52565b6020820192508382525b508282848660046101c2fa506020815101810160405280515b60208114611e9957600060208301511460018114611e895750611e99565b60208301925050601f1901611e6b565b81528452505050602081018390528115611eb35781611ebd565b611ebd81516121ec565b60408201529392505050565b60606000825151611edb906001612e4f565b6001600160401b03811115611ef257611ef261341d565b604051818152601f19601f8301168101602001604052908015611f1c576020820181803683370190505b50905082602001511515600114611f34576000611f3a565b600160f81b5b81600081518110611f4d57611f4d613433565b60200101906001600160f81b031916908160001a905350600160005b845151811015611fde5784518181518110611f8657611f86613433565b60200101516001600160f81b031916838381518110611fa757611fa7613433565b60200101906001600160f81b031916908160001a90535081611fc881613449565b9250508080611fd690613449565b915050611f69565b50909392505050565b600060178211611ff957506001919050565b60ff821161200957506002919050565b61ffff821161201a57506003919050565b63ffffffff821161202d57506005919050565b506009919050565b600081516120438351611fe7565b6110a79190612e4f565b600081600781900b821361206d57611ce4816001600160401b0316611fe7565b611ce461207c82600019613463565b6001600160401b0316611fe7565b50919050565b6120986129c8565b6120a381518361222a565b5060006020820152919050565b6120bc826004836122a7565b5050565b6120cd82600283516122ae565b611b32818351906123cb565b6120bc82826123f2565b60608160200151156121075760405162461bcd60e51b81526004016107a6906134c9565b81515192915050565b60606121236005607f60991b0184612420565b6000806005607f60991b0188868661213c57600061213f565b60015b8a8a8e604051602001612157969594939291906134d9565b6040516020818303038152906040526040516121739190613562565b600060405180830381855af49150503d80600081146121ae576040513d603f01601f191681016040523d815291503d6000602084013e6121b3565b606091505b5091509150816121d657604051638a7db5bf60e01b815260040160405180910390fd5b6121df81612468565b9998505050505050505050565b60006121f782612547565b1561220457506000919050565b60006020830151905061221681612590565b915060086020845103028201915050919050565b61224560405160408082019052606081526000602082015290565b61225060208361356e565b156122785761226060208361356e565b61226b906020612d71565b6122759083612e4f565b91505b60208301829052604051808452600081528281016020018181101561229c57600080fd5b604052509192915050565b611b328383835b6017816001600160401b0316116122d457611c8d60e0600584901b168217845190612785565b60ff816001600160401b031611612315576122fc6018611fe0600585901b1617845190612785565b50611c8d6001600160401b0382166001855191906127f8565b61ffff816001600160401b0316116123575761233e6019611fe0600585901b1617845190612785565b50611c8d6001600160401b0382166002855191906127f8565b63ffffffff816001600160401b03161161239b57612382601a611fe0600585901b1617845190612785565b50611c8d6001600160401b0382166004855191906127f8565b6123b2601b611fe0600585901b1617845190612785565b50611c8d6001600160401b0382166008855191906127f8565b6123e660405160408082019052606081526000602082015290565b611ce483838451612887565b60008160070b12612409576120bc826000836122ae565b6120bc82600161241b84600019613463565b6122ae565b4781811015612446578082604051634787a10360e11b81526004016107a6929190612f5d565b823f151580611c8d5760405163064d954b60e41b815260040160405180910390fd5b6060600080806020850185518101906124819190613685565b919450925090506001600160401b0382166124bb578051156124b657604051630e74990760e01b815260040160405180910390fd5b61251e565b6001600160401b038216605114806124dc57506001600160401b0382166071145b156125035780516000036124b657604051630e74990760e01b815260040160405180910390fd5b8160405163f1f6bced60e01b81526004016107a691906136ef565b821561253f578260405163d4bb667160e01b81526004016107a69190612a81565b949350505050565b60008060208301815b84518110156125855781519250821561256e57506000949350505050565b60209182019161257e9082612e4f565b9050612550565b506001949350505050565b600081156001811461277c57600160801b68010000000000000000640100000000620100006101006010600460026000198b019081041790810417908104179081041790810417908104179081041790810417600101926040517ff8f9cbfae6cc78fbefe7cdc3a1793dfcf4f0e8bbd8cec470b6a28a7a5a3e1efd81527ff5ecf1b3e9debc68e1d9cfabc5997135bfb7a7a3938b7b606b5b4b3f2f1f0ffe60208201527ff6e4ed9ff2d6b458eadcdf97bd91692de2d4da8fd2d0ac50c6ae9a827252361660408201527fc8c0b887b0a8a4489c948c7f847c6125746c645c544c444038302820181008ff60608201527ff7cae577eec2a03cf3bad76fb589591debb2dd67e0aa9834bea6925f6a4a2e0e60808201527fe39ed557db96902cd38ed14fad815115c786af479b7e8324736353433727170760a08201527fc976c13bb96e881cb166a933a55e490d9d56952b8d4e801485467d236242260660c08201527f753a6d1b65325d0c552a4d1345224105391a310b29122104190a11030902010060e082015261010081016040527e818283848586878898a8b8c8d8e8f929395969799a9b9d9e9faaeb6bedeeff600160f81b8082880204818160ff0385015104600160ff1b86116101000201965060001985018516612772576001870196505b505050505061208a565b50600092915050565b6127a060405160408082019052606081526000602082015290565b6000835151905060006127b4826001612e4f565b9050846020015182106127d5576127d5856127d0836002612e30565b612961565b845160208382010185815381518311156127ed578282525b509495945050505050565b61281360405160408082019052606081526000602082015290565b6000845151905060006128268285612e4f565b9050856020015181111561284357612843866127d0836002612e30565b600060016128538661010061380b565b61285d9190612d71565b90508651828101878319825116178152815184111561287a578382525b5096979650505050505050565b6128a260405160408082019052606081526000602082015290565b82518211156128b057600080fd5b6000845151905060006128c38483612e4f565b905085602001518111156128e0576128e0866127d0836002612e30565b600080875180518560208301019350808511156128fb578482525b505050602086015b6020861061293b578051825261291a602083612e4f565b9150612927602082612e4f565b9050612934602087612d71565b9550612903565b60001960208790036101000a018019825116818451161790925250959695505050505050565b600082519050612971838361222a565b50611c8d83826123cb565b604051806060016040528061299b604051602081016040526060815290565b81526020016129bb60405160408082019052606081526000602082015290565b8152600060209091015290565b60405180604001604052806129ee60405160408082019052606081526000602082015290565b8152602001600081525090565b60006001600160a01b0382166110a7565b612a15816129fb565b8114611a7857600080fd5b80356110a781612a0c565b80612a15565b80356110a781612a2b565b60008060408385031215612a5257612a52600080fd5b6000612a5e8585612a20565b9250506020612a6f85828601612a31565b9150509250929050565b805b82525050565b602081016110a78284612a79565b600060208284031215612aa457612aa4600080fd5b600061253f8484612a31565b801515612a7b565b602081016110a78284612ab0565b600060208284031215612adb57612adb600080fd5b600061253f8484612a20565b60008060408385031215612afd57612afd600080fd5b6000612a5e8585612a31565b612a7b816129fb565b60005b83811015612b2d578082015183820152602001612b15565b50506000910152565b6000612b46826000815192915050565b808452602084019350612b5d818560208601612b12565b601f01601f19169290920192915050565b6101808101612b7d828f612a79565b612b8a602083018e612a79565b612b97604083018d612a79565b612ba4606083018c612a79565b612bb1608083018b612a79565b612bbe60a083018a612a79565b612bcb60c0830189612a79565b612bd860e0830188612a79565b612be6610100830187612b09565b612bf4610120830186612a79565b612c02610140830185612b09565b818103610160830152612c158184612b36565b9e9d5050505050505050505050505050565b602081016110a78284612b09565b634e487b7160e01b600052602160045260246000fd5b60078110611a7857611a78612c35565b80612c6581612c4b565b919050565b60006110a782612c5b565b612a7b81612c6a565b602081016110a78284612c75565b6001600160401b038116612a7b565b60e08101612ca9828a612a79565b612cb66020830189612a79565b612cc36040830188612a79565b612cd06060830187612a79565b612cdd6080830186612a79565b612cea60a0830185612b09565b612cf760c0830184612c8c565b98975050505050505050565b60208082528101611ce48184612b36565b601b81526000602082017f72657761726420496e73756666696369656e742062616c616e63650000000000815291505b5060200190565b602080825281016110a781612d14565b634e487b7160e01b600052601160045260246000fd5b818103818111156110a7576110a7612d5b565b60a08101612d928288612a79565b612d9f6020830187612b09565b612dac6040830186612b09565b612db96060830185612b09565b611dea6080830184612a79565b600b81526000602082016a2737ba1036b0b730b3b2b960a91b81529150612d44565b602080825281016110a781612dc6565b60118152600060208201702737ba1039b2b93b32b91039b4b3b732b960791b81529150612d44565b602080825281016110a781612df8565b818102808215838204851417612e4857612e48612d5b565b5092915050565b808201808211156110a7576110a7612d5b565b60408101612e708285612b09565b611ce46020830184612a79565b601681526000602082017514985a5cd9481c1b185b881a185cc8195e1c1a5c995960521b81529150612d44565b602080825281016110a781612e7d565b601b81526000602082017f4d6f7265207468616e20746865206e756d62657220726169736564000000000081529150612d44565b602080825281016110a781612eba565b60808101612f0c8287612a79565b612f196020830186612b09565b612f266040830185612b09565b611da16060830184612a79565b634e487b7160e01b600052601260045260246000fd5b600082612f5857612f58612f33565b500490565b60408101612e708285612a79565b634e487b7160e01b600052602260045260246000fd5b600281046001821680612f9557607f821691505b60208210810361208a5761208a612f6b565b602181526000602082017f736563757269747946756e6420496e73756666696369656e742062616c616e638152606560f81b602082015291505b5060400190565b602080825281016110a781612fa7565b606081016130068286612b09565b6130136020830185612a79565b61253f6040830184612a79565b6040810161302e8285612a79565b611ce46020830184612c75565b600b81526000602082016a57726f6e6720737461746560a81b81529150612d44565b602080825281016110a78161303b565b6014815260006020820173496e73756666696369656e742062616c616e636560601b81529150612d44565b602080825281016110a78161306d565b602d81526000602082017f5261697365207374617465206d7573742062652057616974696e675061794f5081526c14d4d958dd5c9a5d1e519d5b99609a1b60208201529150612fe1565b602080825281016110a7816130a8565b601781526000602082017f57726f6e67206f70732073656375726974792066756e6400000000000000000081529150612d44565b602080825281016110a781613102565b601d81526000602082017f4f5053536563757269747946756e6420686173206265656e207061696400000081529150612d44565b602080825281016110a781613146565b606081016131988286612a79565b6130136020830185612b09565b602481526000602082017f6f7073536563757269747946756e6420496e73756666696369656e742062616c815263616e636560e01b60208201529150612fe1565b602080825281016110a7816131a5565b601681526000602082017557726f6e67207769746864726177206164647265737360501b81529150612d44565b602080825281016110a7816131f6565b801515612a15565b6000815190506110a781613233565b60006020828403121561325f5761325f600080fd5b600061253f848461323b565b601781526000602082017f636c6f736520726169736520706c616e206661696c656400000000000000000081529150612d44565b602080825281016110a78161326b565b602681526000602082017f4f776e61626c653a206e6577206f776e657220697320746865207a65726f206181526564647265737360d01b60208201529150612fe1565b602080825281016110a7816132af565b60006110a76001600160401b038316613319565b90565b6001600160401b031690565b612a7b81613302565b60006110a76133406133168460070b90565b60070b90565b612a7b8161332e565b6040810161335d8285613325565b611ce46020830184613346565b60208082527f4f776e61626c653a2063616c6c6572206973206e6f7420746865206f776e657291019081526000612d44565b602080825281016110a78161336a565b60006110a78260601b90565b60006110a7826133ac565b612a7b6133cf826129fb565b6133b8565b61020560f11b815260020160006133eb82846133c3565b50601401919050565b80612a7b565b600061340682846133f4565b50602001919050565b602081016110a78284613325565b634e487b7160e01b600052604160045260246000fd5b634e487b7160e01b600052603260045260246000fd5b6000600019820361345c5761345c612d5b565b5060010190565b600061346f8260070b90565b915061347b8360070b90565b925050818103677fffffffffffffff198112677fffffffffffffff821317156110a7576110a7612d5b565b600c81526000602082016b24b73b30b634b21021a127a960a11b81529150612d44565b602080825281016110a7816134a6565b60c081016134e78289612c8c565b6134f46020830188612a79565b6135016040830187612c8c565b61350e6060830186612c8c565b81810360808301526135208185612b36565b905061352f60a0830184613325565b979650505050505050565b600061354a826000815192915050565b613558818560208601612b12565b9290920192915050565b6000611ce4828461353a565b60008261357d5761357d612f33565b500690565b6000815190506110a781612a2b565b6001600160401b038116612a15565b6000815190506110a781613591565b601f19601f83011681018181106001600160401b03821117156135d4576135d461341d565b6040525050565b60006135ea6000604051905090565b9050612c6582826135af565b60006001600160401b0382111561360f5761360f61341d565b601f19601f83011660200192915050565b600061363361362e846135f6565b6135db565b90508281526020810184848401111561364e5761364e600080fd5b613659848285612b12565b509392505050565b600082601f83011261367557613675600080fd5b815161253f848260208601613620565b60008060006060848603121561369d5761369d600080fd5b60006136a98686613582565b93505060206136ba868287016135a0565b92505060408401516001600160401b038111156136d9576136d9600080fd5b6136e586828701613661565b9150509250925092565b602081016110a78284612c8c565b80825b600185111561373c5780860481111561371b5761371b612d5b565b600185161561372957908102905b80026137358560011c90565b9450613700565b94509492505050565b60008261375457506001611ce4565b8161376157506000611ce4565b81600181146137775760028114613781576137ae565b6001915050611ce4565b60ff84111561379257613792612d5b565b8360020a9150848211156137a8576137a8612d5b565b50611ce4565b5060208310610133831016604e8410600b84101617156137e1575081810a838111156137dc576137dc612d5b565b611ce4565b6137ee84848460016136fd565b9250905081840481111561380457613804612d5b565b0292915050565b6000611ce4600019848461374556fea264697066735822122049cd8ddc5b22b0b76a4d2d4901387af0dbcce55c93aa1d000cebf90260a85f7064736f6c63430008110033a26469706673582212201610b571d2ba968dc50bae7d11f48ef83ddcc43b69f52e450a414443fb7b90cd64736f6c63430008110033",
  "devdoc": {
    "kind": "dev",
    "methods": {},
    "version": 1
  },
  "userdoc": {
    "kind": "user",
    "methods": {},
    "version": 1
  },
  "storageLayout": {
    "storage": [
      {
        "astId": 7890,
        "contract": "contracts/LetsFilRaiseFactory.sol:LetsFilRaiseFactory",
        "label": "raiseID",
        "offset": 0,
        "slot": "0",
        "type": "t_uint256"
      },
      {
        "astId": 7895,
        "contract": "contracts/LetsFilRaiseFactory.sol:LetsFilRaiseFactory",
        "label": "inactivePlan",
        "offset": 0,
        "slot": "1",
        "type": "t_mapping(t_uint64,t_array(t_uint256)dyn_storage)"
      },
      {
        "astId": 7899,
        "contract": "contracts/LetsFilRaiseFactory.sol:LetsFilRaiseFactory",
        "label": "activePlan",
        "offset": 0,
        "slot": "2",
        "type": "t_mapping(t_uint64,t_uint256)"
      },
      {
        "astId": 7904,
        "contract": "contracts/LetsFilRaiseFactory.sol:LetsFilRaiseFactory",
        "label": "plans",
        "offset": 0,
        "slot": "3",
        "type": "t_mapping(t_uint256,t_struct(RaisePlan)9414_storage)"
      },
      {
        "astId": 7906,
        "contract": "contracts/LetsFilRaiseFactory.sol:LetsFilRaiseFactory",
        "label": "manager",
        "offset": 0,
        "slot": "4",
        "type": "t_address"
      }
    ],
    "types": {
      "t_address": {
        "encoding": "inplace",
        "label": "address",
        "numberOfBytes": "20"
      },
      "t_array(t_uint256)dyn_storage": {
        "base": "t_uint256",
        "encoding": "dynamic_array",
        "label": "uint256[]",
        "numberOfBytes": "32"
      },
      "t_mapping(t_uint256,t_struct(RaisePlan)9414_storage)": {
        "encoding": "mapping",
        "key": "t_uint256",
        "label": "mapping(uint256 => struct ILetsFilRaiseFactory.RaisePlan)",
        "numberOfBytes": "32",
        "value": "t_struct(RaisePlan)9414_storage"
      },
      "t_mapping(t_uint64,t_array(t_uint256)dyn_storage)": {
        "encoding": "mapping",
        "key": "t_uint64",
        "label": "mapping(uint64 => uint256[])",
        "numberOfBytes": "32",
        "value": "t_array(t_uint256)dyn_storage"
      },
      "t_mapping(t_uint64,t_uint256)": {
        "encoding": "mapping",
        "key": "t_uint64",
        "label": "mapping(uint64 => uint256)",
        "numberOfBytes": "32",
        "value": "t_uint256"
      },
      "t_struct(RaisePlan)9414_storage": {
        "encoding": "inplace",
        "label": "struct ILetsFilRaiseFactory.RaisePlan",
        "members": [
          {
            "astId": 9407,
            "contract": "contracts/LetsFilRaiseFactory.sol:LetsFilRaiseFactory",
            "label": "sponsor",
            "offset": 0,
            "slot": "0",
            "type": "t_address"
          },
          {
            "astId": 9409,
            "contract": "contracts/LetsFilRaiseFactory.sol:LetsFilRaiseFactory",
            "label": "minerId",
            "offset": 20,
            "slot": "0",
            "type": "t_uint64"
          },
          {
            "astId": 9411,
            "contract": "contracts/LetsFilRaiseFactory.sol:LetsFilRaiseFactory",
            "label": "raiseId",
            "offset": 0,
            "slot": "1",
            "type": "t_uint256"
          },
          {
            "astId": 9413,
            "contract": "contracts/LetsFilRaiseFactory.sol:LetsFilRaiseFactory",
            "label": "raiseAddress",
            "offset": 0,
            "slot": "2",
            "type": "t_address"
          }
        ],
        "numberOfBytes": "96"
      },
      "t_uint256": {
        "encoding": "inplace",
        "label": "uint256",
        "numberOfBytes": "32"
      },
      "t_uint64": {
        "encoding": "inplace",
        "label": "uint64",
        "numberOfBytes": "8"
      }
    }
  }
}